{
  "contractName": "Dao",
  "abi": [
    {
      "inputs": [
        {
          "internalType": "address",
          "name": "_admin",
          "type": "address"
        }
      ],
      "stateMutability": "nonpayable",
      "type": "constructor"
    },
    {
      "anonymous": false,
      "inputs": [
        {
          "indexed": false,
          "internalType": "address",
          "name": "member_",
          "type": "address"
        },
        {
          "indexed": false,
          "internalType": "string",
          "name": "message",
          "type": "string"
        }
      ],
      "name": "NewMember",
      "type": "event"
    },
    {
      "anonymous": false,
      "inputs": [
        {
          "indexed": false,
          "internalType": "uint256",
          "name": "projectId",
          "type": "uint256"
        },
        {
          "indexed": false,
          "internalType": "enum Dao.ProposalVotingState",
          "name": "result",
          "type": "uint8"
        },
        {
          "indexed": false,
          "internalType": "uint256",
          "name": "yesVotes",
          "type": "uint256"
        },
        {
          "indexed": false,
          "internalType": "uint256",
          "name": "noVotes",
          "type": "uint256"
        }
      ],
      "name": "Result",
      "type": "event"
    },
    {
      "anonymous": false,
      "inputs": [
        {
          "indexed": false,
          "internalType": "string",
          "name": "projectName",
          "type": "string"
        }
      ],
      "name": "SubmittedProjectProposal",
      "type": "event"
    },
    {
      "anonymous": false,
      "inputs": [
        {
          "indexed": false,
          "internalType": "uint256",
          "name": "projectId_",
          "type": "uint256"
        },
        {
          "indexed": false,
          "internalType": "uint256",
          "name": "yesVotes",
          "type": "uint256"
        },
        {
          "indexed": false,
          "internalType": "uint256",
          "name": "noVotes",
          "type": "uint256"
        }
      ],
      "name": "Votes",
      "type": "event"
    },
    {
      "inputs": [
        {
          "internalType": "address",
          "name": "",
          "type": "address"
        }
      ],
      "name": "DaoMembers",
      "outputs": [
        {
          "internalType": "address",
          "name": "member",
          "type": "address"
        },
        {
          "internalType": "uint256",
          "name": "votingPower",
          "type": "uint256"
        },
        {
          "internalType": "bool",
          "name": "exists",
          "type": "bool"
        }
      ],
      "stateMutability": "view",
      "type": "function"
    },
    {
      "inputs": [],
      "name": "maxFundingDuration",
      "outputs": [
        {
          "internalType": "uint256",
          "name": "",
          "type": "uint256"
        }
      ],
      "stateMutability": "view",
      "type": "function"
    },
    {
      "inputs": [
        {
          "internalType": "uint256",
          "name": "",
          "type": "uint256"
        }
      ],
      "name": "project_Proposal",
      "outputs": [
        {
          "internalType": "address",
          "name": "projectOwner",
          "type": "address"
        },
        {
          "internalType": "address",
          "name": "projectWallet",
          "type": "address"
        },
        {
          "internalType": "string",
          "name": "projectName",
          "type": "string"
        },
        {
          "internalType": "string",
          "name": "projectDescription",
          "type": "string"
        },
        {
          "internalType": "uint256",
          "name": "createdAt",
          "type": "uint256"
        },
        {
          "internalType": "uint256",
          "name": "yesVotes",
          "type": "uint256"
        },
        {
          "internalType": "uint256",
          "name": "noVotes",
          "type": "uint256"
        },
        {
          "internalType": "enum Dao.ProposalVotingState",
          "name": "proposalVotingState",
          "type": "uint8"
        }
      ],
      "stateMutability": "view",
      "type": "function"
    },
    {
      "inputs": [],
      "name": "totalTokenByMembers",
      "outputs": [
        {
          "internalType": "uint256",
          "name": "",
          "type": "uint256"
        }
      ],
      "stateMutability": "view",
      "type": "function"
    },
    {
      "inputs": [],
      "name": "votingDuration",
      "outputs": [
        {
          "internalType": "uint256",
          "name": "",
          "type": "uint256"
        }
      ],
      "stateMutability": "view",
      "type": "function"
    },
    {
      "inputs": [
        {
          "internalType": "address",
          "name": "_member",
          "type": "address"
        },
        {
          "internalType": "uint256",
          "name": "_votingPower",
          "type": "uint256"
        }
      ],
      "name": "addDaoMember",
      "outputs": [
        {
          "internalType": "bool",
          "name": "",
          "type": "bool"
        }
      ],
      "stateMutability": "nonpayable",
      "type": "function"
    },
    {
      "inputs": [
        {
          "internalType": "address",
          "name": "_projectOwner",
          "type": "address"
        },
        {
          "internalType": "string",
          "name": "_projectName",
          "type": "string"
        },
        {
          "internalType": "string",
          "name": "_projectDescription",
          "type": "string"
        }
      ],
      "name": "SubmitProjectProposal",
      "outputs": [],
      "stateMutability": "nonpayable",
      "type": "function"
    },
    {
      "inputs": [
        {
          "internalType": "uint256",
          "name": "_projectId",
          "type": "uint256"
        },
        {
          "internalType": "uint8",
          "name": "_vote",
          "type": "uint8"
        }
      ],
      "name": "vote",
      "outputs": [],
      "stateMutability": "nonpayable",
      "type": "function"
    },
    {
      "inputs": [
        {
          "internalType": "uint256",
          "name": "projectId_",
          "type": "uint256"
        }
      ],
      "name": "checkVoteResult",
      "outputs": [],
      "stateMutability": "nonpayable",
      "type": "function"
    }
  ],
  "bytecode": "0x60806040523480156200001157600080fd5b5060405162001c9e38038062001c9e83398181016040528101906200003791906200011d565b600073ffffffffffffffffffffffffffffffffffffffff168173ffffffffffffffffffffffffffffffffffffffff161415620000aa576040517f08c379a0000000000000000000000000000000000000000000000000000000008152600401620000a190620001b1565b60405180910390fd5b62093a8060018190555062278d0060038190555080600960006101000a81548173ffffffffffffffffffffffffffffffffffffffff021916908373ffffffffffffffffffffffffffffffffffffffff1602179055505062000232565b600081519050620001178162000218565b92915050565b6000602082840312156200013057600080fd5b6000620001408482850162000106565b91505092915050565b600062000158602183620001d3565b91507f4f6e6c792041646d696e2063616e2063616c6c20746869732066756e6374696f60008301527f6e000000000000000000000000000000000000000000000000000000000000006020830152604082019050919050565b60006020820190508181036000830152620001cc8162000149565b9050919050565b600082825260208201905092915050565b6000620001f182620001f8565b9050919050565b600073ffffffffffffffffffffffffffffffffffffffff82169050919050565b6200022381620001e4565b81146200022f57600080fd5b50565b611a5c80620002426000396000f3fe608060405234801561001057600080fd5b50600436106100935760003560e01c80638f16f789116100665780638f16f7891461013b57806391c696521461016b578063943e821614610189578063bea846d1146101a5578063e27e13fb146101c357610093565b8063132002fc146100985780631d560028146100b657806322d37975146100ed5780636f4e52a714610109575b600080fd5b6100a06101df565b6040516100ad919061165f565b60405180910390f35b6100d060048036038101906100cb9190611211565b6101e5565b6040516100e4989796959493929190611491565b60405180910390f35b61010760048036038101906101029190611211565b61038a565b005b610123600480360381019061011e919061112d565b610519565b6040516101329392919061154b565b60405180910390f35b610155600480360381019061015091906111d5565b610570565b6040516101629190611582565b60405180910390f35b6101736107bc565b604051610180919061165f565b60405180910390f35b6101a3600480360381019061019e919061123a565b6107c2565b005b6101ad610e9e565b6040516101ba919061165f565b60405180910390f35b6101dd60048036038101906101d89190611156565b610ea4565b005b60015481565b60066020528060005260406000206000915090508060000160009054906101000a900473ffffffffffffffffffffffffffffffffffffffff16908060010160009054906101000a900473ffffffffffffffffffffffffffffffffffffffff169080600201805461025490611885565b80601f016020809104026020016040519081016040528092919081815260200182805461028090611885565b80156102cd5780601f106102a2576101008083540402835291602001916102cd565b820191906000526020600020905b8154815290600101906020018083116102b057829003601f168201915b5050505050908060030180546102e290611885565b80601f016020809104026020016040519081016040528092919081815260200182805461030e90611885565b801561035b5780601f106103305761010080835404028352916020019161035b565b820191906000526020600020905b81548152906001019060200180831161033e57829003601f168201915b5050505050908060040154908060050154908060060154908060070160009054906101000a900460ff16905088565b600454811061039857600080fd5b600060066000838152602001908152602001600020905060015481600401546103c19190611773565b421115610403576040517f08c379a00000000000000000000000000000000000000000000000000000000081526004016103fa906115ff565b60405180910390fd5b80600601548160050154111561046b5760028160070160006101000a81548160ff02191690836002811115610461577f4e487b7100000000000000000000000000000000000000000000000000000000600052602160045260246000fd5b02179055506104bf565b60008160070160006101000a81548160ff021916908360028111156104b9577f4e487b7100000000000000000000000000000000000000000000000000000000600052602160045260246000fd5b02179055505b7f6c20d0c2ba91e13dd0467a2a866c964b629417a84bea20c3c432ba15305b91d7828260070160009054906101000a900460ff168360050154846006015460405161050d949392919061167a565b60405180910390a15050565b60076020528060005260406000206000915090508060000160009054906101000a900473ffffffffffffffffffffffffffffffffffffffff16908060010154908060020160009054906101000a900460ff16905083565b6000600960009054906101000a900473ffffffffffffffffffffffffffffffffffffffff1673ffffffffffffffffffffffffffffffffffffffff163373ffffffffffffffffffffffffffffffffffffffff1614610602576040517f08c379a00000000000000000000000000000000000000000000000000000000081526004016105f9906115bf565b60405180910390fd5b6000600760008573ffffffffffffffffffffffffffffffffffffffff1673ffffffffffffffffffffffffffffffffffffffff1681526020019081526020016000209050838160000160006101000a81548173ffffffffffffffffffffffffffffffffffffffff021916908373ffffffffffffffffffffffffffffffffffffffff16021790555082816001018190555060018160020160006101000a81548160ff02191690831515021790555060088190806001815401808255809150506001900390600052602060002090600302016000909190919091506000820160009054906101000a900473ffffffffffffffffffffffffffffffffffffffff168160000160006101000a81548173ffffffffffffffffffffffffffffffffffffffff021916908373ffffffffffffffffffffffffffffffffffffffff160217905550600182015481600101556002820160009054906101000a900460ff168160020160006101000a81548160ff02191690831515021790555050507f2373fd48c1688b65732996810a391f6ad6d243ae22414ffdbb4e3495c8302e43846040516107a9919061151d565b60405180910390a1600191505092915050565b60005481565b6000600760003373ffffffffffffffffffffffffffffffffffffffff1673ffffffffffffffffffffffffffffffffffffffff1681526020019081526020016000206001015411610847576040517f08c379a000000000000000000000000000000000000000000000000000000000815260040161083e9061161f565b60405180910390fd5b600454821061085557600080fd5b6000600660008481526020019081526020016000209050600160028111156108a6577f4e487b7100000000000000000000000000000000000000000000000000000000600052602160045260246000fd5b8160070160009054906101000a900460ff1660028111156108f0577f4e487b7100000000000000000000000000000000000000000000000000000000600052602160045260246000fd5b146108fa57600080fd5b600154816004015461090c9190611773565b42111561094e576040517f08c379a0000000000000000000000000000000000000000000000000000000008152600401610945906115ff565b60405180910390fd5b60006002811115610988577f4e487b7100000000000000000000000000000000000000000000000000000000600052602160045260246000fd5b8160080160003373ffffffffffffffffffffffffffffffffffffffff1673ffffffffffffffffffffffffffffffffffffffff16815260200190815260200160002060009054906101000a900460ff166002811115610a0f577f4e487b7100000000000000000000000000000000000000000000000000000000600052602160045260246000fd5b14610a4f576040517f08c379a0000000000000000000000000000000000000000000000000000000008152600401610a46906115df565b60405180910390fd5b60038260ff1610610a95576040517f08c379a0000000000000000000000000000000000000000000000000000000008152600401610a8c9061163f565b60405180910390fd5b60008260ff166002811115610ad3577f4e487b7100000000000000000000000000000000000000000000000000000000600052602160045260246000fd5b90506000600760003373ffffffffffffffffffffffffffffffffffffffff1673ffffffffffffffffffffffffffffffffffffffff1681526020019081526020016000206040518060600160405290816000820160009054906101000a900473ffffffffffffffffffffffffffffffffffffffff1673ffffffffffffffffffffffffffffffffffffffff1673ffffffffffffffffffffffffffffffffffffffff168152602001600182015481526020016002820160009054906101000a900460ff1615151515815250509050600280811115610bd7577f4e487b7100000000000000000000000000000000000000000000000000000000600052602160045260246000fd5b826002811115610c10577f4e487b7100000000000000000000000000000000000000000000000000000000600052602160045260246000fd5b1415610cf8578060200151836005016000828254610c2e9190611773565b92505081905550600280811115610c6e577f4e487b7100000000000000000000000000000000000000000000000000000000600052602160045260246000fd5b8360080160003373ffffffffffffffffffffffffffffffffffffffff1673ffffffffffffffffffffffffffffffffffffffff16815260200190815260200160002060009054906101000a900460ff166002811115610cf5577f4e487b7100000000000000000000000000000000000000000000000000000000600052602160045260246000fd5b50505b60016002811115610d32577f4e487b7100000000000000000000000000000000000000000000000000000000600052602160045260246000fd5b826002811115610d6b577f4e487b7100000000000000000000000000000000000000000000000000000000600052602160045260246000fd5b1415610e54578060200151836006016000828254610d899190611773565b9250508190555060016002811115610dca577f4e487b7100000000000000000000000000000000000000000000000000000000600052602160045260246000fd5b8360080160003373ffffffffffffffffffffffffffffffffffffffff1673ffffffffffffffffffffffffffffffffffffffff16815260200190815260200160002060009054906101000a900460ff166002811115610e51577f4e487b7100000000000000000000000000000000000000000000000000000000600052602160045260246000fd5b50505b7f8d9d239f422ce30d377c9077168077f6368dad1a42e411ae9a4e997bb42517598584600501548560060154604051610e8f939291906116bf565b60405180910390a15050505050565b60035481565b60006006600060045481526020019081526020016000209050838160000160006101000a81548173ffffffffffffffffffffffffffffffffffffffff021916908373ffffffffffffffffffffffffffffffffffffffff16021790555082816002019080519060200190610f18929190610fe3565b5081816003019080519060200190610f31929190610fe3565b5060018160070160006101000a81548160ff02191690836002811115610f80577f4e487b7100000000000000000000000000000000000000000000000000000000600052602160045260246000fd5b021790555042816004018190555060046000815480929190610fa1906118b7565b91905055507f542ba897915b4a90bfa6c4ac910fb846f8997365f0d6d1d0e2237573843189fe83604051610fd5919061159d565b60405180910390a150505050565b828054610fef90611885565b90600052602060002090601f0160209004810192826110115760008555611058565b82601f1061102a57805160ff1916838001178555611058565b82800160010185558215611058579182015b8281111561105757825182559160200191906001019061103c565b5b5090506110659190611069565b5090565b5b8082111561108257600081600090555060010161106a565b5090565b600061109961109484611727565b6116f6565b9050828152602081018484840111156110b157600080fd5b6110bc848285611843565b509392505050565b6000813590506110d3816119e1565b92915050565b600082601f8301126110ea57600080fd5b81356110fa848260208601611086565b91505092915050565b600081359050611112816119f8565b92915050565b60008135905061112781611a0f565b92915050565b60006020828403121561113f57600080fd5b600061114d848285016110c4565b91505092915050565b60008060006060848603121561116b57600080fd5b6000611179868287016110c4565b935050602084013567ffffffffffffffff81111561119657600080fd5b6111a2868287016110d9565b925050604084013567ffffffffffffffff8111156111bf57600080fd5b6111cb868287016110d9565b9150509250925092565b600080604083850312156111e857600080fd5b60006111f6858286016110c4565b925050602061120785828601611103565b9150509250929050565b60006020828403121561122357600080fd5b600061123184828501611103565b91505092915050565b6000806040838503121561124d57600080fd5b600061125b85828601611103565b925050602061126c85828601611118565b9150509250929050565b61127f816117c9565b82525050565b61128e816117db565b82525050565b61129d81611831565b82525050565b60006112ae82611757565b6112b88185611762565b93506112c8818560208601611852565b6112d1816119bc565b840191505092915050565b60006112e9602183611762565b91507f4f6e6c792041646d696e2063616e2063616c6c20746869732066756e6374696f60008301527f6e000000000000000000000000000000000000000000000000000000000000006020830152604082019050919050565b600061134f600d83611762565b91507f416c726561647920766f746564000000000000000000000000000000000000006000830152602082019050919050565b600061138f600983611762565b91507f77617320416464656400000000000000000000000000000000000000000000006000830152602082019050919050565b60006113cf600d83611762565b91507f566f74696e6720636c6f736564000000000000000000000000000000000000006000830152602082019050919050565b600061140f600c83611762565b91507f6e6f742061206d656d62657200000000000000000000000000000000000000006000830152602082019050919050565b600061144f601183611762565b91507f496e76616c69642053656c656374696f6e0000000000000000000000000000006000830152602082019050919050565b61148b8161181a565b82525050565b6000610100820190506114a7600083018b611276565b6114b4602083018a611276565b81810360408301526114c681896112a3565b905081810360608301526114da81886112a3565b90506114e96080830187611482565b6114f660a0830186611482565b61150360c0830185611482565b61151060e0830184611294565b9998505050505050505050565b60006040820190506115326000830184611276565b818103602083015261154381611382565b905092915050565b60006060820190506115606000830186611276565b61156d6020830185611482565b61157a6040830184611285565b949350505050565b60006020820190506115976000830184611285565b92915050565b600060208201905081810360008301526115b781846112a3565b905092915050565b600060208201905081810360008301526115d8816112dc565b9050919050565b600060208201905081810360008301526115f881611342565b9050919050565b60006020820190508181036000830152611618816113c2565b9050919050565b6000602082019050818103600083015261163881611402565b9050919050565b6000602082019050818103600083015261165881611442565b9050919050565b60006020820190506116746000830184611482565b92915050565b600060808201905061168f6000830187611482565b61169c6020830186611294565b6116a96040830185611482565b6116b66060830184611482565b95945050505050565b60006060820190506116d46000830186611482565b6116e16020830185611482565b6116ee6040830184611482565b949350505050565b6000604051905081810181811067ffffffffffffffff8211171561171d5761171c61198d565b5b8060405250919050565b600067ffffffffffffffff8211156117425761174161198d565b5b601f19601f8301169050602081019050919050565b600081519050919050565b600082825260208201905092915050565b600061177e8261181a565b91506117898361181a565b9250827fffffffffffffffffffffffffffffffffffffffffffffffffffffffffffffffff038211156117be576117bd611900565b5b828201905092915050565b60006117d4826117fa565b9050919050565b60008115159050919050565b60008190506117f5826119cd565b919050565b600073ffffffffffffffffffffffffffffffffffffffff82169050919050565b6000819050919050565b600060ff82169050919050565b600061183c826117e7565b9050919050565b82818337600083830152505050565b60005b83811015611870578082015181840152602081019050611855565b8381111561187f576000848401525b50505050565b6000600282049050600182168061189d57607f821691505b602082108114156118b1576118b061195e565b5b50919050565b60006118c28261181a565b91507fffffffffffffffffffffffffffffffffffffffffffffffffffffffffffffffff8214156118f5576118f4611900565b5b600182019050919050565b7f4e487b7100000000000000000000000000000000000000000000000000000000600052601160045260246000fd5b7f4e487b7100000000000000000000000000000000000000000000000000000000600052602160045260246000fd5b7f4e487b7100000000000000000000000000000000000000000000000000000000600052602260045260246000fd5b7f4e487b7100000000000000000000000000000000000000000000000000000000600052604160045260246000fd5b6000601f19601f8301169050919050565b600381106119de576119dd61192f565b5b50565b6119ea816117c9565b81146119f557600080fd5b50565b611a018161181a565b8114611a0c57600080fd5b50565b611a1881611824565b8114611a2357600080fd5b5056fea26469706673582212201d42c85ae82c088383f7fd2981c06e65500cef2937c0ce2ee0390cf6dc91895664736f6c63430008000033",
  "immutableReferences": {},
  "source": "// SPDX-License-Identifier: <SPDX-License-Identifier>;\npragma solidity ^0.8.0;\n// import 'https://github.com/OpenZeppelin/openzeppelin-contracts/blob/master/contracts/token/ERC20/IERC20.sol';\ncontract Dao {\n    // Global Variables\n    uint public totalTokenByMembers;\n    uint public votingDuration;\n    uint requiredAmountOfToken;\n    // should be fixed\n    uint public maxFundingDuration;\n    // Proposals\n    struct ProjectProposal {\n        address projectOwner;\n        address projectWallet;\n        string projectName;\n        string projectDescription;\n        uint createdAt;\n        uint yesVotes;\n        uint noVotes;\n        ProposalVotingState proposalVotingState;\n        mapping(address => Vote) votesByMember;\n        mapping(address => uint) contributor;\n        address[] contributors;\n    }\n    enum ProposalVotingState{\n            REJECTED,\n            ONGOING,\n            APPROVED\n    }\n    uint projectId;\n    ProjectProposal[] ProjectProposals;\n    mapping(uint => ProjectProposal) public project_Proposal;\n    // DAO Members will be added by admin\n    struct DaoMember{\n        address member;\n        uint votingPower;\n        bool exists;\n    }\n    mapping(address => DaoMember) public DaoMembers;\n    DaoMember[] allDaoMembers;\n    // Votes\n    // require that only approved proposal\n    enum Vote { Null, No, Yes }\n    // enum Payment { Start, Ongoing, Closed } // platform\n    // constructor\n    address admin;\n    event Result(uint projectId, ProposalVotingState result, uint yesVotes, uint noVotes);\n    event NewMember(address member_, string message);\n    event SubmittedProjectProposal(string projectName);\n    event Votes(uint projectId_, uint yesVotes, uint noVotes);\n    constructor (address _admin) {\n        require(_admin != address(0), 'Only Admin can call this function');\n        votingDuration = 7 days;\n        maxFundingDuration = 30 days;\n        admin = _admin;\n    }\n    modifier onlyAdmin(){\n        require(msg.sender == admin, 'Only Admin can call this function');\n        _;\n    }\n    modifier onlyDaoMember(){\n        require(DaoMembers[msg.sender].votingPower > 0, \"not a member\");\n        _;\n    }\n    function addDaoMember(address _member, uint _votingPower) public onlyAdmin returns(bool){\n        DaoMember storage _daoMember = DaoMembers[_member];\n        _daoMember.member =_member;\n         _daoMember.votingPower = _votingPower;\n         _daoMember.exists =  true;\n        allDaoMembers.push(_daoMember);\n        emit NewMember(_member, 'was Added');\n        return true;\n    }\n    // function removeDaoMember(address _member) public onlyAdmin{\n    //     delete DaoMembers[_member];\n    // }\n    // PROPOSAL FUNCTIONS\n    function SubmitProjectProposal(address _projectOwner, string memory _projectName,string memory _projectDescription) public {\n        ProjectProposal storage project =  project_Proposal[projectId];\n        project.projectOwner = _projectOwner;\n        project.projectName = _projectName;\n        project.projectDescription = _projectDescription;\n        project.proposalVotingState = ProposalVotingState.ONGOING;\n        project.createdAt = block.timestamp;\n        projectId++;\n        emit SubmittedProjectProposal(_projectName);\n    }\n    function vote(uint _projectId, uint8 _vote) public onlyDaoMember {\n        require (_projectId < projectId);\n        ProjectProposal storage project =  project_Proposal[_projectId];\n        require (project.proposalVotingState == ProposalVotingState.ONGOING);\n        require (block.timestamp <= (project.createdAt + votingDuration), 'Voting closed');\n        require (project.votesByMember[msg.sender] == Vote.Null, 'Already voted');\n        require (_vote < 3,'Invalid Selection');\n        Vote vote_ = Vote(_vote);\n        DaoMember memory _daoMember = DaoMembers[msg.sender];\n        if (vote_ == Vote.Yes) {\n            project.yesVotes += _daoMember.votingPower;\n            project.votesByMember[msg.sender] == Vote.Yes;\n        }\n        if (vote_ == Vote.No) {\n            project.noVotes += _daoMember.votingPower;\n            project.votesByMember[msg.sender] == Vote.No;\n        }\n        emit Votes(_projectId, project.yesVotes, project.noVotes);\n    }\n    function checkVoteResult(uint projectId_) public {\n        require (projectId_ < projectId);\n        ProjectProposal storage project =  project_Proposal[projectId_];\n        require (block.timestamp <= (project.createdAt + votingDuration), 'Voting closed');\n        if (project.yesVotes > project.noVotes) {\n            project.proposalVotingState = ProposalVotingState.APPROVED;\n        } else {\n            project.proposalVotingState = ProposalVotingState.REJECTED;\n        }\n        emit Result(projectId_, project.proposalVotingState, project.yesVotes, project.noVotes);\n    }\n}\n",
  "sourcePath": "/Users/eniolaagboola/Documents/START/DAO/contracts/dao.sol",
  "compiler": {
    "name": "solc",
    "version": "0.8.0+commit.c7dfd78e.Emscripten.clang"
  },
  "schemaVersion": "3.3.4",
  "updatedAt": "2021-08-04T01:33:57.328Z",
  "devdoc": {
    "kind": "dev",
    "methods": {},
    "version": 1
  },
  "userdoc": {
    "kind": "user",
    "methods": {},
    "version": 1
  }
}